:03000000020046B5
:1000430002007A758120E5E8D2E0F5E8907FAB7491
:100053001FF0907FA974FFF0907FAA74FFF0907F48
:1000630095E044C0F0907FAFE04401F0907FAEE0B4
:100073004405F0D2AF80FE0200D2000200F7000276
:10008300011C00020141000201660002018B000213
:10009300018C0002018D0002018E0002018F00021B
:1000A30001900002019100020192000201930002FB
:1000B30001940002019500020196000201970002DB
:1000C3000198000201990002019A0002019B00C0FD
:1000D300E0C083C082C085C084C086E591C2E4F5D8
:1000E30091907FAB7401F0D086D084D085D082D03C
:1000F30083D0E032C0E0C083C082C085C084C086A4
:10010300E591C2E4F591907FAB7402F0D086D08480
:10011300D085D082D083D0E032C0E0C083C082C01B
:1001230085C084C086E591C2E4F591907FAB7404E9
:10013300F0D086D084D085D082D083D0E032C0E0A6
:10014300C083C082C085C084C086E591C2E4F591B6
:10015300907FAB7408F0D086D084D085D082D083D2
:10016300D0E032C0E0C083C082C085C084C086E5D1
:1001730091C2E4F591907FAB7410F0D086D084D017
:1001830085D082D083D0E0323232323232323232D0
:0A019300323232323232323232326E
:00000001FF
