:0919F300030001020704050608C7
:1015D900421AD90000015800015600015700017A4A
:1015E90000016E00016900017100016600016D8052
:1015F900017600017700017800017900501ADC00BA
:101609000002030301020303030303020203010CA3
:1016190059000000000000010000000000017500F1
:10162900017400016700016500491A720000000099
:0D1639000000000000017200C104017301F7
:1017F000907F97740BF07E80EE602F5F6010907F7B
:101800009D740FF0907F97740AF004F08016907F1B
:101810009D740FF0907F977408F004F0740BF090B3
:0B1820007F9D04F0EEC313FE80CE227B
:10199400AD07EDC3940240037F0022ED7006C3E55A
:0E19A400589556FEEE540FFFC3740F9FFF229E
:10182B00EF7032C2ACE55804540FFF655660247458
:10183B00C92558F582E4341AF583EDF0E556B55811
:10184B0004C2998D998F58757819436D0490201F98
:06185B00E56DF0D2AC22A5
:10128600E56F700E907FD0E020E107A3E0F56FE4F4
:10129600F568E56FD39400500302136074C02568A7
:1012A600F582E4347BF583E0FCC4540FFBE56FC3A1
:1012B60094045003021352AF03121994EFC394031C
:1012C6005009EBD394015003021352056874C025EC
:1012D60068F582E4347BF583E0FD056874C0256813
:1012E600F582E4347BF583E0FA056874C02568F579
:1012F60082E4347BF583E0FEEBD394015032EC5468
:101306000F24DCF582E4341AF583E0F9D394004027
:1013160005AF0312182BE9D394014007AF03AD02C2
:1013260012182BE9D394024007AF03AD0612182B0F
:10133600056874C02568F582E4347BF583E0FCC457
:10134600540FFB74FC256FF56F0212B3E56FC3945F
:0B135600045007E4F56F907FD1F022F7
:10175800EFC454F0FFED540F4FFFAE7505757400DC
:101768002EF582E4347CF583EFF0AF7505757400CF
:101778002FF582E4347CF583EBF0AF7505757400C2
:101788002FF582E4347CF583E554F0AF7505757464
:0D179800002FF582E4347CF583E555F02246
:10190500900004120A18FE7002FF22EEC4540F2440
:10191500F824FC500860091460061470067F022242
:061925007F01227F002279
:101422008B4E8A4F8950AC05900002EC120A45900F
:101432000002120A18FFC4540F24F824FC500C6056
:101442001C14601924FE6027047079AB4EAA4FA9C0
:1014520050900004EC120A457D02AF0522AB4EAA61
:101462004FA950900004EC120A457D01AF0522AB52
:101472004EAA4FA950900004E4120A45EC64F160B0
:1014820003BCF3057D01AF0522BCF2057D02AF0569
:1014920022BCF6151209FFFF7D05AB04E4F554F5F5
:1014A200551217587D00AF0522BCF013AB4EAA4F60
:1014B200A9509000057401120A457D04AF05227DF2
:0914C20000AF05227D00AF0522F8
:1007A8008F458D46E546C394F8400D7D0FAB46E472
:1007B800F554F55512175822E54575F006A4245945
:1007C800F9E4FAFBF54BF54C894D900001120A1833
:1007D8001460471470030208871470030208BE14DB
:1007E800700302092E240460030209FEE546C3943F
:1007F800804019AB4BAA4CA94DAD46121422AB4B05
:10080800AA4CA94D900001EF120A4522AB4BAA4C05
:10081800A94D900001E4120A4522E546C394805090
:1008280045AB4BAA4CA94D900002120A18F547C3D4
:1008380094F05009E547C4540FF548800375480201
:10084800AF45AD48AB47854654E4F555121758AB4C
:100858004BAA4CA94D121905AB4BAA4CA94D9000B7
:1008680001EF120A4522AB4BAA4CA94DAD46121412
:1008780022AB4BAA4CA94D900001EF120A4522E584
:1008880046C394805017AB4BAA4CA94D900003E582
:1008980046120A459000017403120A4522AB4BAA7E
:1008A8004CA94DAD46121422AB4BAA4CA94D900051
:1008B80001EF120A4522E546C394805050AB4BAA7B
:1008C8004CA94D900002120A18F547C394F050093C
:1008D800E547C4540FF5488003754803AF45AD4854
:1008E800AB4BAA4CA94D900003120A18F554854643
:1008F80055AB47121758AB4BAA4CA94D121905AB6B
:0D0908004BAA4CA94D900001EF120A4522A8
:10091500AB4BAA4CA94DAD46121422AB4BAA4CA920
:100925004D900001EF120A4522AB4BAA4CA94D9000
:100935000005120A1804FCE546C394805058BC0112
:100945000A900002E546120A458035BC020A90006D
:1009550003E546120A458028BC0325AF457D049072
:100965000002120A18FBC003AB4BAA4CA94D90001C
:1009750003120A18F554854655D003121758E4FC9E
:10098500AB4BAA4CA94D900005EC120A459000010D
:100995007404120A4522E4F54AFEBC0108754805AF
:1009A500854649800EAB4BAA4CA94D900002120A10
:1009B50018F549BC0207754806AE46800DAB4BAA33
:1009C5004CA94D900003120A18FEBC030675480792
:1009D50085464AAF45AD48AB498E54854A551217F1
:1009E50058AB4BAA4CA94DAD46121422AB4BAA4CA1
:0A09F500A94D900001EF120A4522FF
:100DDB00E4901A7CF0F56CF570FFEF25E024A5F597
:100DEB0082E4341AF583E4F0A3F0EF25E0247DF5DB
:100DFB0082E4341AF583E4F0A3F0EF25E02491F5B7
:100E0B0082E4341AF583E4F0A3F00FBF0ACCE4902C
:100E1B001A70F0A3F0F575F558F556F557F57AF508
:100E2B006FF568A3F0907FDF7454F0907FDE745001
:100E3B00F0907FDD7438F0E4907FC9F0907FCDF0B7
:100E4B00907FD1F0907FE17404F0907FE004F0E4A8
:100E5B00907FF2F0907FF8744CF075CBFF75CAE879
:100E6B0075C834758920758DFA758E10D28E75986C
:100E7B0050D2AC907FAE741FF0D200907FB2740052
:100E8B00F0A37480F0907FAFE04402F0E054FBF0ED
:100E9B00907FE274D2F0907F937430F0901ADB74F1
:100EAB00FFF0907F96F0907F9C74F0F0E4907F942D
:100EBB00F0907F977404F0907F9D740CF0907F9569
:100ECB0074C3F0907F9874FFF0907F9E7430F0E4C1
:100EDB00F0907F977408F07F147E001219CC907FEE
:100EEB009674BFF0901ADBE0907F96F07F057E0042
:040EFB001219CC22DA
:10110D00E56C25E024A5F582E4341AF583E0FEA311
:10111D00E0FFE56C25E02491F582E4341AF583E0D7
:10112D00FCA3E08C45F546E56C25E0247DF582E4D5
:10113D00341AF583E0FCA3E0FDE57070030211CED7
:10114D001570ED6F7002EC6E6077C3ED9FEE6480ED
:10115D00F8EC6480985031E56C25E02401F582E4CB
:10116D00341BF583E0FAA3E02DFDEA3CFCD3ED9FA3
:10117D00EE6480F8EC6480985008C3EC6480948031
:10118D00502DAC06AD078027E56C25E02401F582D6
:10119D00E4341BF583E0FAA3E02DFDEA3CFCC3ED3E
:1011AD009FEE6480F8EC6480985004AC06AD07E5C2
:1011BD006C25E0247DF582E4341AF583ECF0A3ED83
:1011CD00F0E5466D7003E5456C700302127BE56C2E
:1011DD0025E024ECF582E4341AF583E0FEA3E0FF6C
:1011ED00C3E5469DEC6480F8E5456480985028EF92
:1011FD002546F546EE3545F545D3E5469DEC64802F
:0D120D00F8E5456480985009C3E54564800C
:10121A00948050238C458D46801DEF2546F546EE79
:10122A003545F545C3E5469DEC6480F8E54564809F
:10123A009850048C458D46E56C25E02491F582E4AE
:10124A00341AF583E545F0A3E546F0E56C25E0FFA1
:10125A00902110E020E5F974002FF582E43420F59E
:10126A0083E545F074012FF582E43420F583E546E1
:0C127A00F0056CE56CB40A03E4F56C228E
:1000800078397C007D007BFF7A1979F37E007F0947
:10009000120B80907FC8E030E103020121A3E0F55C
:1000A00043E4F542E542C395435029901AD9E475DB
:1000B000F001120A9DFEC3E5F09447EE9400401053
:1000C00074C02542F582E4347DF583E0FF1217F019
:1000D000054280D0E4907FC9F0901AD9E064607046
:1000E00004A3E064CF703A901AD9F0A3F07F02FE27
:1000F0001219CC901A7C7401F0436E0890201DE513
:100100006EF090201F7480F07F647E001219CC7F07
:10011000F47E011219CC901ADBE0547FF0907F96A8
:10012000F012128612110D12110D907FCCE030E109
:10013000030202C3A3E0F543E4FDEDC3954340038E
:100140000202BE74C02DF582E4347CF583E0F544F0
:10015000C39405400302024EE54425E0F544E4F56E
:1001600042E542C39402400302024AE54425E024EA
:1001700091F582E4341AF583E0FEA3E08E33F53482
:100180000D74C02DF582E4347CF583E0FE0D74C05F
:100190002DF582E4347CF583E0FBEEF535EBF536A6
:1001A00065347004E53365357003020243E5442588
:1001B000E024A5F582E4341AF583E535F0A3E536AD
:0601C000F0C3E5369534A2
:1001C600FFE5359533FEEF7803CEA2E713CE13D8BD
:1001D600F8F5388E3745377005F537753801E5443B
:1001E60025E02401F582E4341BF583E537F0A3E529
:1001F60038F0E5342538FFE5333537FEE54425E0AC
:10020600247DF582E4341AF583EEF0A3EFF0E538A9
:10021600AE377802CEA2E713CE13D8F8F5388E376C
:1002260045377005F537753801E54425E024ECF5CA
:1002360082E4341AF583E537F0A3E538F005420584
:10024600440201610D02013A74C12DF582E4347C49
:10025600F583E0FFE544B4140E8F71901A71E04502
:1002660071902014F0804CE544B41507902015EFEA
:10027600F08040E544B41807902018EFF08034E58C
:1002860044C39420502DE544B41D0DEF54F7F56E8C
:10029600456990201DF0801BE544B41F09E56D4FAC
:1002A60090201FF0800D74002544F582E43420F57B
:1002B60083EFF00D0D02013AE4907FCDF0901A7CA9
:1002C600E0700302046F901ADBE0FF54F7907F960C
:1002D600F0907F9AE0FE907F96EFF0EE5440FFE5B7
:1002E600655440FD6F6021EE30E71BE565F4544030
:0B02F6005F6006901A7BE004F0EEF45D
:1003010054405D6006901A7BE014F08E65E56B4504
:100311006A6017E56B156B7002156A14456A700AFD
:10032100F569E56E456990201DF0907FBCE030E1F4
:100331000302046F756908756A02756B00E56E4505
:100341006990201DF09020157440F0E4F542743955
:100351002542F8E62400F582E43421F583E0FF74B8
:10036100722542F582E4341AF583E0FDC3EF9DFD69
:10037100D394014006EDC394FF4006EF6003BFFF35
:1003810002EFF074722542F582E4341AF583E0FF3E
:1003910074002542F582E4347DF583EFF00542E5F2
:1003A10042B409AA9020157480F07FFDE4F542EF74
:1003B100540EFD901ADBE054F14D907F96F0907F42
:1003C10098EFF0907F9AE0FE131313541F5402FD2F
:1003D100EE33333354F854104DFDEE54E14DFE909D
:1003E1007F9BE0540C4EF4FE74092542F582E434FF
:1003F1007DF583EEF0EF25E04401FF0542E542B4CF
:1004010007AD902110E054076006902015740CF0A0
:10041100907D0BE0543FF0902110E054C7907D0E89
:10042100F09020157420F0E4907D10F0A3F0A3F07B
:01043100A327
:10043200F0901A7BE0907D14F0907FBD7415F0E58A
:10044200766006D57603536DFEE5776006D57703B1
:10045200536DFDE5786006D57803536DFBE5796051
:1004620006D57903536DF790201FE56DF0907FC09C
:10047200E020E13BE57A6557601EE57A04540FF50A
:1004820042E4FF74B92542F582E4341AF583E0FDB3
:100492001207A885427A80DCE575D394004010E506
:1004A20075C394405009907FC1E575F0E4F575225B
:1017A500907FAFE04408F0E4FF7F07902019E4F054
:1017B500A3DFFC7F07901ADBE04480F0907F96F072
:1017C5007F327E001219CC907F977404F0E4901A52
:1017D5007CF0907F93F0907F9CF0907F9DF0907FC0
:0B17E50095F0907F9EF0536EF7D3222A
:10164700907F937430F0907F9C74F0F0907F9D743E
:101657000CF0907F9574C3F0E4907F9EF0907F9795
:101667007408F07F147E001219CC907F9674BFF037
:10167700901ADBE0907F96F07F057E001219CCE48C
:10168700901AD9F0A3F0436E0890201DE56EF090F4
:07169700201F7480F0D32234
:021A0000D322EF
:0A0F4600907FEAE0901B00F0D32238
:1016EF00901B00E0907F00F0907FB57401F0D32243
:10195000907FEAE0901A70F0E0B40106A37464F09E
:101960008005E4901A71F0901A71E045719020148E
:03197000F0D3228F
:1019E300901A70E0907F00F0907FB57401F0D322DD
:021A0200D322ED
:021A0400D322EB
:021A0600D322E9
:021A0800D322E7
:10155700C0E0C083C082C085C084C086758600C0D5
:10156700D075D000C007C2AC309836C298E5570492
:10157700540FFF657A600F74B92FF582E4341AF5BA
:1015870083E599F08F5774B92FF582E4341AF58300
:10159700E064FE600C757619436D0190201FE56DC0
:1015A700F030991BC299E55604540FFF6558600D3A
:1015B70074C92FF582E4341AF583E0F5998F56D272
:1015C700ACD007D0D0D086D084D085D082D083D07D
:0215D700E03200
:010F5000326E
:1018B700C0E0C083C082C085C084C086758600D260
:1018C700015391EF907FAB7401F0D086D084D0851F
:0718D700D082D083D0E03283
:10188D00C0E0C083C082C085C084C08675860090CC
:10189D007FC4E4F05391EF907FAB7404F0D086D009
:0A18AD0084D085D082D083D0E032D1
:100BFE00C0E0C0F0C083C082C085C084C086758648
:100C0E0000C0D075D000C000C002C003C004C00533
:100C1E00C006C0079020157401F0902118E0FFD295
:100C2E00BCD2BED394324003020DA8901A71E04597
:100C3E0071902014F0A37402F0901A70E0640170A9
:100C4E0030907F68EF1313543FFBEB6013F0F0F01E
:100C5E00F0F0F0F0F0F0F0F0F0F0F0F0F01B80EAD1
:100C6E00EF5403FBEB7003020CB6F0F0F0F01B80B8
:100C7E00F3907F68EF1313543FFBEB601BF0F0F023
:100C8E00F0F0F0F0F0F0F0F0F0F0F0F0F0F0F0F056
:100C9E00F0F0F0F0F01B80E2EF5403FBEB6009F094
:100CAE00F0F0F0F0F01B80F4E5727014902110E07B
:100CBE0030E321757201C2049020157410F0801477
:100CCE00E572B4010F902110E030E30875720275E1
:100CDE007300D204907F74E0FE907F75E0FDEEF518
:100CEE0021EDF522901A70E0B4011BAF227C007D3D
:100CFE0004120A67AA05EAFFC3E5229FF522E52141
:100D0E009400F521801BAE21AF227C007D06120AD5
:030D1E0067AA05BC
:100D2100EAFFC3E5229FF522E5219400F521E522A2
:100D3100AE217804CEA2E713CE13D8F8FB2004032A
:100D4100020DA8C3940A5003020DA8907F62EBD351
:100D510094004013E0E0E0E0E0E0E0E0E0E0E0E02B
:100D6100E0E0E0E01B80E7E522540FFB907F62EBBF
:100D7100D394004004E01B80F6907FE27452F0901F
:100D81007F62EAD394004004E01A80F6907FE27417
:100D9100D2F0E572B402100573E573B401097572FE
:100DA100009020157410F0C2BCC2BEE570700375CE
:100DB100700A5391EF907FAB7402F0D007D006D048
:100DC10005D004D003D002D000D0D0D086D084D0BA
:0A0DD10085D082D083D0F0D0E0324C
:10192B00C0E0C083C082C085C084C086758600536A
:10193B0091EF907FAB7410F0D086D084D085D0829D
:05194B00D083D0E03262
:0116FF0032B8
:1018DE00C0E0C083C082C085C084C086758600D239
:1018EE00035391EF907FAB7408F0D086D084D085EF
:0718FE00D082D083D0E0325C
:011A0A0032A9
:011A0B0032A8
:011A0C0032A7
:011A0D0032A6
:011A0E0032A5
:011A0F0032A4
:011A100032A3
:011A110032A2
:011A120032A1
:011A130032A0
:011A1400329F
:011A1500329E
:011A1600329D
:011A1700329C
:011A1800329B
:011A1900329A
:100F5600752E00752D00752C00752B00C203C2007E
:100F6600C202C201120DDB7E137F618E088F0975E6
:100F76000A13750B73750C14750D1CEE54E0700393
:100F8600021076752F007530808E318F32C3742033
:100F96009FFF74149ECF2402CF3400FEE48F2A8E66
:100FA60029F528F527F526F525F524F523AF2AAEEC
:100FB60029AD28AC27AB26AA25A924A823C3120A43
:100FC600B3502CE5302526F582E525352FF58374BB
:100FD600CDF07A0079007800E5262401F526EA3579
:100FE60025F525E93524F524E83523F52380BE7556
:100FF6002600752500752400752300AF2AAE29AD9D
:1010060028AC27AB26AA25A924A823C3120AB350C5
:1010160039AE25AF26E5322FF582EE3531F583E080
:10102600FDE5302FF582EE352FF583EDF07A007968
:10103600007800E5262401F526EA3525F525E9356B
:1010460024F524E83523F52380B1852F088530095A
:1010560074612480FF741334FFFEC3E50B9FF50B08
:10106600E50A9EF50AC3E50D9FF50DE50C9EF50C08
:10107600D2E843D820907F95E044C0F0907FAFE05F
:101086004401F0907FAEE0441DF0D2AF20014A202B
:101096000105D20512169E752E00752D00752C00C1
:1010A600752B007F407E927D047C00AB2EAA2DA975
:1010B6002CA82BC3120AB350D32001D07A00790092
:1010C6007800E52E2401F52EEA352DF52DE9352C8F
:1010D600F52CE8352BF52B80CA538EF83001051216
:1010E60004B2C20130031A1217A55015C203121911
:1010F60073200007907FD6E020E7F31219B212168C
:071106004712008080D62291
:1004B200907FE9E0700302064D1470030206C9241E
:1004C200FE700302074024FB700302064714700308
:1004D20002064114700302063514700302063B241F
:1004E200056003020794121A0040030207A0907FDE
:1004F200EBE024FE60191460472402600302062B1D
:10050200E508907FD4F0E509907FD5F00207A0902E
:100512007FEAE0FF120EFFAA06A9077B018B338A4E
:10052200348935EA49600FEE907FD4F0AF01EF9045
:100532007FD5F00207A0907FB4E04401F00207A04B
:10054200907FEAE0FF121861AA06A9077B018B33AC
:100552008A348935EA497003020621AB338B3A8A21
:100562003B893C1209FFF53D907FEEE0FFE53DD36C
:100572009F4003E0F53DE53D700302061375390027
:10058200753800753700753600E53DC39440500458
:10059200AF3D80027F40E4FCFDFEAB39AA38A937AB
:1005A200A836C3120AB35038E53C2539F582E5383E
:1005B200353BF583E0FF74002539F582E4347FF59D
:1005C20083EFF07A0079007800E5392401F539EA01
:1005D2003538F538E93537F537E83536F53680A957
:1005E200E53DC394405004AF3D80027F40907FB50B
:1005F200EFF0E53DC394405004AF3D80027F40C31D
:10060200E53D9FF53D907FB4E020E203020578804E
:10061200F4E4907FB5F0907FB47402F00207A090EA
:100622007FB4E04401F00207A0907FB4E04401F0FF
:100632000207A01219E30207A01219500207A01222
:100642000F460207A01216EF0207A0121A02400379
:100652000207A0907FE8E0247F6024146031240226
:10066200705BA200E433FF25E0FFA202E4334F9067
:100672007F00F0E4A3F0907FB57402F00207A0E4DB
:10068200907F00F0A3F0907FB57402F00207A09073
:100692007FECE0F45480FFC4540FFFE054072F2591
:1006A200E024B4F582E4347FF583E05401907F00C6
:1006B200F0E4A3F0907FB57402F00207A0907FB43B
:1006C200E04401F00207A0121A0440030207A090BE
:1006D2007FE8E024FE601D240260030207A0907FF1
:1006E200EAE0B40105C2000207A0907FB4E0440131
:1006F200F00207A0907FEAE0703B907FECE0F454B8
:1007020080FFC4540FFFE054072F25E024B4F58284
:10071200E4347FF583E4F0907FECE05480FF131320
:1007220013541FFFE054072F907FD7F0E4F53AE00F
:100732004420F08069907FB4E04401F08060121A96
:1007420006505B907FE8E024FE60182402704F9010
:100752007FEAE0B40104D2008044907FB4E0440117
:10076200F0803B907FEAE07020907FECE0F45480D0
:10077200FFC4540FFFE054072F25E024B4F582E4B0
:10078200347FF5837401F08015907FB4E04401F06A
:10079200800C121A085007907FB4E04401F0907F59
:0607A200B4E04402F02265
:030033000219FCB3
:0419FC0053D8EF329B
:101361001201000100000040041607800100000086
:1013710000010902A900010100A0FA090400000509
:10138100FF00000007050402400000070584031563
:10139100000A07050602400000070586024000001A
:1013A100070502024000000904000107FF000000D8
:1013B100070504024000000705840315000A07051C
:1013C10006024000000705860240000007050202F0
:1013D10040000007058801C8000107050A01C8008F
:1013E100010904000207FF00000007050402400094
:1013F100000705840315000A0705060240000007DF
:10140100058602400000070502024000000705882A
:10141100012C010107050A012C0101040309040043
:0114210000CA
:030023000215576C
:03003B00020F5061
:050F41000000000000AB
:050F510000000000009B
:03004300021700A1
:101700000218B700020BFE0002188D000218DE005E
:1017100002192B000216FF00021A0A00021A0B001F
:10172000021A0C00021A0D00021A0E00021A0F0013
:10173000021A1000021A1100021A1200021A1300F3
:10174000021A1400021A1500021A1600021A1700D3
:08175000021A1800021A190028
:1019B200907FD6E030E712E04401F07F147E0012FF
:0A19C20019CC907FD6E054FEF0220D
:10197300907FD6E04480F0438701000000000022FE
:07169E00907FD6E04408F044
:0316A500E4F53336
:0416A800E054FBF01F
:0316AC00E4F5332F
:1016AF00E04408F0300504E04402F07FDC7E0512D0
:1016BF0019CC907F92E030E3077FDC7E051219CCC6
:1016CF00907FAB74FFF0907FA9F0907FAAF05391B9
:0816DF00EF907FD6E054F7F014
:0316E700E4F533F4
:0516EA00E04404F022C1
:1019CC008E458F46E5461546AE45700215454E6070
:0719DC000512198380EE22C1
:02186100A907D5
:10186300AE0CAF0D8F828E83A3E064037017AD01BE
:1018730019ED7001228F828E83E07C002FFDEC3EF8
:09188300FEAF0580DF7E007F004E
:01188C002239
:100EFF00E4FEAC0AAD0B8D828C83A3E06402702DEF
:100F0F00AB060EEBB50705AF05AE04228D828C83C1
:100F1F00A3A3E0F53EA3E0F53F623EE53E623FE569
:100F2F003F623E2DFBE53E3CFCAD0380C97E007F5A
:010F3F0000B1
:010F4000228E
:101983007400F58690FDA57C05A3E582458370F977
:011993002231
:030000000214CB1C
:0C14CB00787FE4F6D8FD75817A021512D6
:1009FF00BB010689828A83E0225002E722BBFE02F6
:090A0F00E32289828A83E4932228
:100A1800BB010CE58229F582E5833AF583E0225093
:100A280006E92582F8E622BBFE06E92582F8E222DD
:0D0A3800E58229F582E5833AF583E49322F7
:100A4500F8BB010DE58229F582E5833AF583E8F0E7
:100A5500225006E92582C8F622BBFE05E92582C893
:020A6500F2227B
:100A6700C2D5EC30E709B2D5E4C39DFDE49CFCEEAA
:100A770030E715B2D5E4C39FFFE49EFE120BA9C36E
:100A8700E49DFDE49CFC8003120BA930D507C3E469
:060A97009FFFE49EFE2219
:100A9D00A3F8E0C5F025F0F0E5821582700215830C
:060AAD00E0C838F0E82269
:100AB300EB9FF5F0EA9E42F0E99D42F0E89C45F099
:010AC3002210
:100AC400E709F608DFFA8046E709F208DFFA803E14
:100AD40088828C83E709F0A3DFFA8032E309F60801
:100AE400DFFA806EE309F208DFFA806688828C837D
:100AF400E309F0A3DFFA805A89828A83E0A3F60827
:100B0400DFFA804E89828A83E0A3F208DFFA80420A
:100B140080D280FA80C680D4805580F280298010EB
:100B240080A680EA809A80A880DA80E280CA802940
:100B340088848C8589828A83E493A30586F0A3053F
:100B440086DFF5DEF3800B89828A83E493A3F608BB
:100B5400DFF9ECFAA9F0EDFB2288848C8589828A7E
:100B640083E0A30586F0A30586DFF6DEF480E3893F
:100B7400828A83E493A3F208DFF980D688F0ED2417
:100B840002B4040050CCF582EB2402B4040050C239
:100B940023234582F582EF4E60B8EF60010EE582B3
:050BA40023900B147307
:1014D700020F56E493A3F8E493A34003F68001F2C6
:1014E70008DFF48029E493A3F85407240CC8C33316
:1014F700C4540F4420C8834004F456800146F6DFE5
:10150700E4800B01020408102040809015D9E47E86
:10151700019360BCA3FF543F30E509541FFEE493D9
:10152700A360010ECF54C025E060A840B8E493A3A0
:10153700FAE493A3F8E493A3C8C582C8CAC583CACB
:10154700F0A3C8C582C8CAC583CADFE9DEE780BE83
:0116460000A3
:100BA900BC000BBE0029EF8DF084FFADF022E4CC30
:100BB900F875F008EF2FFFEE33FEEC33FCEE9DECF9
:100BC900984005FCEE9DFE0FD5F0E9E4CEFD22ED3F
:100BD900F8F5F0EE8420D21CFEADF075F008EF2F89
:100BE900FFED33FD4007985006D5F0F222C398FD7A
:050BF9000FD5F0EA2217
:00000001FF
