:0919E300030001020704050608D7
:1015D500015800015600015700017C00017000010F
:1015E5006B00017300016800016F800178000179CB
:1015F50000017A00017B00501ADA000002030301A2
:10160500020303030303020203010C590000000057
:10161500000001000000000001770001760001696B
:101625000001650002660000491A72000000000012
:0C16350000000000017400C104017501F8
:1017F000907F977403F07E80EE602F5F6010907F83
:101800009D740FF0907F977402F004F08016907F23
:101810009D740FF0E4907F97F004F07403F0907FD4
:0B1820009D740CF0EEC313FE80CE227E
:1016E200AD07EDC3940240037F0022ED7006C3E50F
:0E16F200589556FEEE540FFFC3740F9FFF2253
:10182B00EF7030E55804540FFF6556602674C925D8
:10183B0058F582E4341AF583EDF0C2ACE556B55891
:10184B00028D998F58D2AC757A19436F0490201F73
:04185B00E56FF02223
:10128600E571700E907FD0E020E107A3E0F571E4F0
:10129600F56AE571D39400500302136074C0256AA1
:1012A600F582E4347BF583E0FCC4540FFBE571C39F
:1012B60094045003021352AF031216E2EFC39403D1
:1012C6005009EBD394015003021352056A74C025EA
:1012D6006AF582E4347BF583E0FD056A74C0256A0D
:1012E600F582E4347BF583E0FA056A74C0256AF575
:1012F60082E4347BF583E0FEEBD394015032EC5468
:101306000F24DAF582E4341AF583E0F9D394004029
:1013160005AF0312182BE9D394014007AF03AD02C2
:1013260012182BE9D394024007AF03AD0612182B0F
:10133600056A74C0256AF582E4347BF583E0FCC453
:10134600540FFB74FC2571F5710212B3E571C39459
:0B135600045007E4F571907FD1F022F5
:10175800EFC454F0FFED540F4FFFAE7705777400D8
:101768002EF582E4347CF583EFF0AF7705777400CB
:101778002FF582E4347CF583EBF0AF7705777400BE
:101788002FF582E4347CF583E554F0AF7705777460
:0D179800002FF582E4347CF583E555F02246
:10190300900004120A1EFE7002FF22EEC4540F243C
:10191300F824FC500860091460061470067F022244
:061923007F01227F00227B
:101422008B4E8A4F8950AC05900002EC120A4B9009
:101432000002120A1EFFC4540F24F824FC500C6050
:101442001C14601924FE6027047079AB4EAA4FA9C0
:1014520050900004EC120A4B7D02AF0522AB4EAA5B
:101462004FA950900004EC120A4B7D01AF0522AB4C
:101472004EAA4FA950900004E4120A4BEC64F160AA
:1014820003BCF3057D01AF0522BCF2057D02AF0569
:1014920022BCF615120A05FF7D05AB04E4F554F5EE
:1014A200551217587D00AF0522BCF013AB4EAA4F60
:1014B200A9509000057401120A4B7D04AF05227DEC
:0914C20000AF05227D00AF0522F8
:1007AE008F458D46E546C394F8400D7D0FAB46E46C
:1007BE00F554F55512175822E54575F006A424593F
:1007CE00F9E4FAFBF54BF54C894D900001120A1E27
:1007DE0014604714700302088D1470030208C414C9
:1007EE00700302093424046003020A04E546C3942C
:1007FE00804019AB4BAA4CA94DAD46121422AB4BFF
:10080E00AA4CA94D900001EF120A4B22AB4BAA4CF9
:10081E00A94D900001E4120A4B22E546C394805084
:10082E0045AB4BAA4CA94D900002120A1EF547C3C8
:10083E0094F05009E547C4540FF5488003754802FB
:10084E00AF45AD48AB47854654E4F555121758AB46
:10085E004BAA4CA94D121903AB4BAA4CA94D9000B3
:10086E0001EF120A4B22AB4BAA4CA94DAD46121406
:10087E0022AB4BAA4CA94D900001EF120A4B22E578
:10088E0046C394805017AB4BAA4CA94D900003E57C
:10089E0046120A4B9000017403120A4B22AB4BAA6C
:1008AE004CA94DAD46121422AB4BAA4CA94D90004B
:1008BE0001EF120A4B22E546C394805050AB4BAA6F
:1008CE004CA94D900002120A1EF547C394F0500930
:1008DE00E547C4540FF5488003754803AF45AD484E
:1008EE00AB4BAA4CA94D900003120A1EF554854637
:1008FE0055AB47121758AB4BAA4CA94D121903AB67
:0D090E004BAA4CA94D900001EF120A4B229C
:10091B00AB4BAA4CA94DAD46121422AB4BAA4CA91A
:10092B004D900001EF120A4B22AB4BAA4CA94D90F4
:10093B000005120A1E04FCE546C394805058BC0106
:10094B000A900002E546120A4B8035BC020A900061
:10095B0003E546120A4B8028BC0325AF457D049066
:10096B000002120A1EFBC003AB4BAA4CA94D900010
:10097B0003120A1EF554854655D003121758E4FC92
:10098B00AB4BAA4CA94D900005EC120A4B90000101
:10099B007404120A4B22E4F54AFEBC0108754805A3
:1009AB00854649800EAB4BAA4CA94D900002120A0A
:1009BB001EF549BC0207754806AE46800DAB4BAA27
:1009CB004CA94D900003120A1EFEBC030675480786
:1009DB0085464AAF45AD48AB498E54854A551217EB
:1009EB0058AB4BAA4CA94DAD46121422AB4BAA4C9B
:0A09FB00A94D900001EF120A4B22F3
:100DE100E4901A7CF0F56EF572FFEF25E024A5F58D
:100DF10082E4341AF583E4F0A3F0EF25E0247DF5D5
:100E010082E4341AF583E4F0A3F0EF25E02491F5B0
:100E110082E4341AF583E4F0A3F00FBF0ACCE49026
:100E21001A70F0A3F0F577F558F556F557F57CF5FE
:100E310071F56AA3F0907FDF7454F0907FDE7450F7
:100E4100F0907FDD7418F0E4907FC9F0907FCDF0D1
:100E5100907FD1F0907FE17404F0907FE004F0E4A2
:100E6100907FF2F0907FF8744CF075CBFF75CAE873
:100E710075C834758920758DFA758E10D28E759866
:100E810050D2AC907FAE741FF0D200907FB274004C
:100E9100F0A37480F0907FAFE04402F0E054FBF0E7
:100EA100907FE274D2F0907F937430F0901AD974ED
:100EB100FFF0907F96F0907F9CF0E4907F94F0900B
:100EC1007F977404F0907F9D740CF0907F9574C3AC
:100ED100F0907F9874FFF0907F9E7430F0E4907FE3
:100EE10097F07F14FE1219AC907F9674BFF0901AA0
:0E0EF100D9E0907F96F07F057E001219AC22AA
:10110D00E56E25E024A5F582E4341AF583E0FEA30F
:10111D00E0FFE56E25E02491F582E4341AF583E0D5
:10112D00FCA3E08C45F546E56E25E0247DF582E4D3
:10113D00341AF583E0FCA3E0FDE57270030211CED5
:10114D001572ED6F7002EC6E6077C3ED9FEE6480EB
:10115D00F8EC6480985031E56E25E024FFF582E4CB
:10116D00341AF583E0FAA3E02DFDEA3CFCD3ED9FA4
:10117D00EE6480F8EC6480985008C3EC6480948031
:10118D00502DAC06AD078027E56E25E024FFF582D6
:10119D00E4341AF583E0FAA3E02DFDEA3CFCC3ED3F
:1011AD009FEE6480F8EC6480985004AC06AD07E5C2
:1011BD006E25E0247DF582E4341AF583ECF0A3ED81
:1011CD00F0E5466D7003E5456C700302127BE56E2C
:1011DD0025E024EAF582E4341AF583E0FEA3E0FF6E
:1011ED00C3E5469DEC6480F8E5456480985028EF92
:1011FD002546F546EE3545F545D3E5469DEC64802F
:0D120D00F8E5456480985009C3E54564800C
:10121A00948050238C458D46801DEF2546F546EE79
:10122A003545F545C3E5469DEC6480F8E54564809F
:10123A009850048C458D46E56E25E02491F582E4AC
:10124A00341AF583E545F0A3E546F0E56E25E0FF9F
:10125A00902110E020E5F974002FF582E43420F59E
:10126A0083E545F074012FF582E43420F583E546E1
:0C127A00F0056EE56EB40A03E4F56E2288
:1000800078397C007D007BFF7A1979E37E007F0957
:10009000120B86907FC8E030E103020127A3E0F550
:1000A00043E4F542E542C3954350270567E567AE53
:1000B000667002056614C39446EE9400401074C046
:1000C0002542F582E4347DF583E0FF1217F0054206
:1000D00080D2E4907FC9F0AE66AF67FCFD7BB67A54
:1000E000A4F9F8C3120AA3703EF566F5677F02FE15
:1000F0001219AC901A7C7401F043700890201DE531
:1001000070F090201F7480F07F647E001219AC9014
:100110007F977408F07FF47E011219AC901AD9E031
:10012000547FF0907F96F012128612110D12110D6D
:10013000907FCCE030E1030202C9A3E0F543E4FD87
:10014000EDC3954340030202C474C02DF582E4342C
:100150007CF583E0F544C394054003020254E54472
:1001600025E0F544E4F542E542C39402400302026F
:1001700050E54425E02491F582E4341AF583E0FE4D
:10018000A3E08E33F5340D74C02DF582E4347CF594
:1001900083E0FE0D74C02DF582E4347CF583E0FB32
:1001A000EEF535EBF53665347004E53365357003EF
:1001B000020249E54425E024A5F582E4341AF583DA
:0601C000E535F0A3E53671
:1001C600F0C3E5369534FFE5359533FEEF7803CE7B
:1001D600A2E713CE13D8F8F5388E3745377005F5F4
:1001E60037753801E54425E024FFF582E4341AF535
:1001F60083E537F0A3E538F0E5342538FFE53335F8
:1002060037FEE54425E0247DF582E4341AF583EED5
:10021600F0A3EFF0E538AE377802CEA2E713CE139F
:10022600D8F8F5388E3745377005F537753801E556
:100236004425E024EAF582E4341AF583E537F0A391
:10024600E538F0054205440201670D02014074C11C
:100256002DF582E4347CF583E0FFE544B4140E8F7B
:1002660073901A71E04573902014F0804CE544B405
:100276001507902015EFF08040E544B4180790204C
:1002860018EFF08034E544C39420502DE544B41DA6
:100296000DEF54F7F570456B90201DF0801BE5447B
:1002A600B41F09E56F4F90201FF0800D74002544A0
:1002B600F582E43420F583EFF00D0D020140E49061
:1002C6007FCDF0901A7CE07003020475901AD9E095
:1002D600FF54F7907F96F0907F9AE0FE907F96EF1E
:1002E600F0EE5440FFE5655440FD6F6021EE30E7C7
:0D02F6001BE565F454405F6006901A7BE044
:1003030004F0EEF454405D6006901A7BE014F08E26
:1003130065E56D456C6017E56D156D7002156C1420
:10032300456C700AF56BE570456B90201DF0907F6E
:10033300BCE030E103020475756B08756C02756DE2
:1003430000E570456B90201DF09020157440F0E49B
:10035300F54274392542F8E62400F582E43421F5A8
:1003630083E0FF74722542F582E4341AF583E0FDDD
:10037300C3EF9DFDD394014006EDC394FF4006EF08
:100383006003BFFF02EFF074722542F582E4341A72
:10039300F583E0FF74002542F582E4347DF583EFB5
:1003A300F00542E542B409AA9020157480F07FFD60
:1003B300E4F542EF540EFD901AD9E054F14D907FCD
:1003C30096F0907F98EFF0907F9AE0FE131313540A
:1003D3001F5402FDEE33333354F854104DFDEE54E5
:1003E300E14DFE907F9BE0540C4EF4FE74092542D0
:1003F300F582E4347DF583EEF0EF25E04401FF055B
:1004030042E542B407AD902110E054076006902006
:1004130015740CF0907D0BE0543FF0902110E054E4
:10042300C7907D0EF09020157420F0E4907D10F0BD
:01043300A325
:10043400F0A3F0A3F0901A7BE0907D14F0907FBDC0
:100444007415F0E5786006D57803536FFEE579609E
:1004540006D57903536FFDE57A6006D57A03536FA9
:10046400FBE57B6006D57B03536FF790201FE56F98
:10047400F0907FC0E020E13BE57C6557601EE57CA1
:1004840004540FF542E4FF74B92542F582E4341AAA
:10049400F583E0FD1207AE85427C80DCE577D394DA
:1004A400004010E577C394405009907FC1E577F090
:0404B400E4F57722D2
:1017A500907FAFE04408F0E4FF7F07902019E4F054
:1017B500A3DFFC7F07901AD9E04480F0907F96F074
:1017C5007F327E001219AC907F977404F0E4901A72
:1017D5007CF0907F93F0907F9CF0907F9DF0907FC0
:0B17E50095F0907F9EF05370F7D32228
:10169300907F937430F0907F9C74FFF0907F9D74E3
:1016A3000CF0907F9574C3F0907F9E7430F0E490BB
:1016B3007F97F07F14FE1219AC907F9674BFF09061
:1016C3001AD9E0907F96F07F057E001219AC437023
:0F16D3000890201DE570F090201F7480F0D32246
:0219F000D32200
:0A0F4600907FEAE0901AFEF0D3223B
:1019C300901AFEE0907F00F0907FB57401F0D3226F
:10194E00907FEAE0901A70F0E0B40106A37464F0A0
:10195E008005E4901A71F0901A71E045739020148E
:03196E00F0D32291
:1019D300901A70E0907F00F0907FB57401F0D322ED
:0219F200D322FE
:0219F400D322FC
:0219F600D322FA
:0219F800D322F8
:10155700C0E0C083C082C085C084C086758600C0D5
:10156700D075D000C007309836C298E55704540F9D
:10157700FF657C600F74B92FF582E4341AF583E5B3
:1015870099F08F5774B92FF582E4341AF583E06424
:10159700FE600C757819436F0190201FE56FF030DE
:1015A700991BC299E55604540FFF6558600D74C91D
:1015B7002FF582E4341AF583E0F5998F56D007D0DA
:0E15C700D0D086D084D085D082D083D0E032C0
:010F5000326E
:1018B500C0E0C083C082C085C084C086758600D262
:1018C500015391EF907FAB7401F0D086D084D08521
:0718D500D082D083D0E03285
:10188B00C0E0C083C082C085C084C08675860090CE
:10189B007FC4E4F05391EF907FAB7404F0D086D00B
:0A18AB0084D085D082D083D0E032D3
:100C0400C0E0C0F0C083C082C085C084C086758641
:100C140000C0D075D000C000C002C003C004C0052D
:100C2400C006C0079020157401F0902118E0FFD28F
:100C3400BCD2BED394324003020DAE901A71E0458B
:100C440073902014F0A37402F0901A70E0640170A1
:100C540030907F68EF1313543FFBEB6013F0F0F018
:100C6400F0F0F0F0F0F0F0F0F0F0F0F0F01B80EACB
:100C7400EF5403FBEB7003020CBCF0F0F0F01B80AC
:100C8400F3907F68EF1313543FFBEB601BF0F0F01D
:100C9400F0F0F0F0F0F0F0F0F0F0F0F0F0F0F0F050
:100CA400F0F0F0F0F01B80E2EF5403FBEB6009F08E
:100CB400F0F0F0F0F01B80F4E5747014902110E073
:100CC40030E321757401C2049020157410F080146F
:100CD400E574B4010F902110E030E30875740275D7
:100CE4007500D204907F74E0FE907F75E0FDEEF510
:100CF40021EDF522901A70E0B4011BAF227C007D37
:100D040004120A6DAA05EAFFC3E5229FF522E52134
:100D14009400F521801BAE21AF227C007D06120ACF
:030D24006DAA05B0
:100D2700EAFFC3E5229FF522E5219400F521E5229C
:100D3700AE217804CEA2E713CE13D8F8FB20040324
:100D4700020DAEC3940A5003020DAE907F62EBD33F
:100D570094004013E0E0E0E0E0E0E0E0E0E0E0E025
:100D6700E0E0E0E01B80E7E522540FFB907F62EBB9
:100D7700D394004004E01B80F6907FE27452F09019
:100D87007F62EAD394004004E01A80F6907FE27411
:100D9700D2F0E574B402100575E575B401097574F0
:100DA700009020157410F0C2BCC2BEE572700375C6
:100DB700720A5391EF907FAB7402F0D007D006D040
:100DC70005D004D003D002D000D0D0D086D084D0B4
:0A0DD70085D082D083D0F0D0E03246
:10192900C0E0C083C082C085C084C086758600536C
:1019390091EF907FAB7410F0D086D084D085D0829F
:05194900D083D0E03264
:0119FA0032BA
:1018DC00C0E0C083C082C085C084C086758600D23B
:1018EC00035391EF907FAB7408F0D086D084D085F1
:0718FC00D082D083D0E0325E
:0119FB0032B9
:0119FC0032B8
:0119FD0032B7
:0119FE0032B6
:0119FF0032B5
:011A000032B3
:011A010032B2
:011A020032B1
:011A030032B0
:011A040032AF
:011A050032AE
:011A060032AD
:011A070032AC
:011A080032AB
:011A090032AA
:011A0A0032A9
:100F5600752E00752D00752C00752B00C203C2007E
:100F6600C202C201120DE17E137F618E088F0975E0
:100F76000A13750B73750C14750D1CEE54E0700393
:100F8600021076752F007530808E318F32C3742033
:100F96009FFF74149ECF2402CF3400FEE48F2A8E66
:100FA60029F528F527F526F525F524F523AF2AAEEC
:100FB60029AD28AC27AB26AA25A924A823C3120A43
:100FC600B9502CE5302526F582E525352FF58374B5
:100FD600CDF07A0079007800E5262401F526EA3579
:100FE60025F525E93524F524E83523F52380BE7556
:100FF6002600752500752400752300AF2AAE29AD9D
:1010060028AC27AB26AA25A924A823C3120AB950BF
:1010160039AE25AF26E5322FF582EE3531F583E080
:10102600FDE5302FF582EE352FF583EDF07A007968
:10103600007800E5262401F526EA3525F525E9356B
:1010460024F524E83523F52380B1852F088530095A
:1010560074612480FF741334FFFEC3E50B9FF50B08
:10106600E50A9EF50AC3E50D9FF50DE50C9EF50C08
:10107600D2E843D820907F95E044C0F0907FAFE05F
:101086004401F0907FAEE0441DF0D2AF20014A202B
:101096000105D205121642752E00752D00752C001D
:1010A600752B007F407E927D047C00AB2EAA2DA975
:1010B6002CA82BC3120AB950D32001D07A0079008C
:1010C6007800E52E2401F52EEA352DF52DE9352C8F
:1010D600F52CE8352BF52B80CA538EF83001051216
:1010E60004B8C20130031A1217A55015C20312190B
:1010F60071200007907FD6E020E7F31219921216AE
:071106009312008080D62245
:1004B800907FE9E070030206531470030206CF240C
:1004C800FE700302074624FB700302064D147003F6
:1004D80002064714700302063B1470030206412407
:1004E80005600302079A1219F040030207A6907FDD
:1004F800EBE024FE60191460472402600302063111
:10050800E508907FD4F0E509907FD5F00207A69022
:100518007FEAE0FF120EFFAA06A9077B018B338A48
:10052800348935EA49600FEE907FD4F0AF01EF903F
:100538007FD5F00207A6907FB4E04401F00207A639
:10054800907FEAE0FF12185FAA06A9077B018B33A8
:100558008A348935EA497003020627AB338B3A8A15
:100568003B893C120A05F53D907FEEE0FFE53DD35F
:100578009F4003E0F53DE53D70030206197539001B
:10058800753800753700753600E53DC39440500452
:10059800AF3D80027F40E4FCFDFEAB39AA38A937A5
:1005A800A836C3120AB95038E53C2539F582E53832
:1005B800353BF583E0FF74002539F582E4347FF597
:1005C80083EFF07A0079007800E5392401F539EAFB
:1005D8003538F538E93537F537E83536F53680A951
:1005E800E53DC394405004AF3D80027F40907FB505
:1005F800EFF0E53DC394405004AF3D80027F40C317
:10060800E53D9FF53D907FB4E020E20302057E8042
:10061800F4E4907FB5F0907FB47402F00207A690DE
:100628007FB4E04401F00207A6907FB4E04401F0F3
:100638000207A61219D30207A612194E0207A6121C
:100648000F460207A61219C30207A61219F24003A1
:100658000207A6907FE8E0247F602414603124021A
:10066800705BA200E433FF25E0FFA202E4334F9061
:100678007F00F0E4A3F0907FB57402F00207A6E4CF
:10068800907F00F0A3F0907FB57402F00207A69067
:100698007FECE0F45480FFC4540FFFE054072F258B
:1006A800E024B4F582E4347FF583E05401907F00C0
:1006B800F0E4A3F0907FB57402F00207A6907FB42F
:1006C800E04401F00207A61219F440030207A690BD
:1006D8007FE8E024FE601D240260030207A6907FE5
:1006E800EAE0B40105C2000207A6907FB4E0440125
:1006F800F00207A6907FEAE0703B907FECE0F454AC
:1007080080FFC4540FFFE054072F25E024B4F5827E
:10071800E4347FF583E4F0907FECE05480FF13131A
:1007280013541FFFE054072F907FD7F0E4F53AE009
:100738004420F08069907FB4E04401F08060121991
:10074800F6505B907FE8E024FE60182402704F901A
:100758007FEAE0B40104D2008044907FB4E0440111
:10076800F0803B907FEAE07020907FECE0F45480CA
:10077800FFC4540FFFE054072F25E024B4F582E4AA
:10078800347FF5837401F08015907FB4E04401F064
:10079800800C1219F85007907FB4E04401F0907F64
:0607A800B4E04402F0225F
:030033000219ECC3
:0419EC0053D8EF32AB
:101361001201000100000040041605800100000088
:1013710000010902A900010100A0FA090400000509
:10138100FF00000007050402400000070584031563
:10139100000A07050602400000070586024000001A
:1013A100070502024000000904000107FF000000D8
:1013B100070504024000000705840315000A07051C
:1013C10006024000000705860240000007050202F0
:1013D10040000007058801C8000107050A01C8008F
:1013E100010904000207FF00000007050402400094
:1013F100000705840315000A0705060240000007DF
:10140100058602400000070502024000000705882A
:10141100012C010107050A012C0101040309040043
:0114210000CA
:030023000215576C
:03003B00020F5061
:050F41000000000000AB
:050F510000000000009B
:03004300021700A1
:101700000218B500020C040002188B000218DC005D
:10171000021929000219FA000219FB000219FC0043
:101720000219FD000219FE000219FF00021A000052
:10173000021A0100021A0200021A0300021A04002F
:10174000021A0500021A0600021A0700021A08000F
:08175000021A0900021A0A0046
:10199200907FD6E030E712E04401F07F147E00121F
:0A19A20019AC907FD6E054FEF0224D
:10197100907FD6E04480F043870100000000002200
:07164200907FD6E04408F0A0
:03164900E4F53392
:04164C00E054FBF07B
:03165000E4F5338B
:10165300E04408F0300504E04402F07FDC7E05122C
:1016630019AC907F92E030E3077FDC7E051219AC62
:10167300907FAB74FFF0907FA9F0907FAAF0539115
:08168300EF907FD6E054F7F070
:03168B00E4F53350
:05168E00E04404F0221D
:1019AC008E458F46E5461546AE45700215454E6090
:0719BC000512198180EE22E3
:02185F00A907D7
:10186100AE0CAF0D8F828E83A3E064037017AD01C0
:1018710019ED7001228F828E83E07C002FFDEC3EFA
:09188100FEAF0580DF7E007F0050
:01188A00223B
:100EFF00E4FEAC0AAD0B8D828C83A3E06402702DEF
:100F0F00AB060EEBB50705AF05AE04228D828C83C1
:100F1F00A3A3E0F53EA3E0F53F623EE53E623FE569
:100F2F003F623E2DFBE53E3CFCAD0380C97E007F5A
:010F3F0000B1
:010F4000228E
:101981007400F58690FDA57C05A3E582458370F979
:011991002233
:030000000214CB1C
:0C14CB00787FE4F6D8FD75817C021512D4
:100A0500BB010689828A83E0225002E722BBFE02EF
:090A1500E32289828A83E4932222
:100A1E00BB010CE58229F582E5833AF583E022508D
:100A2E0006E92582F8E622BBFE06E92582F8E222D7
:0D0A3E00E58229F582E5833AF583E49322F1
:100A4B00F8BB010DE58229F582E5833AF583E8F0E1
:100A5B00225006E92582C8F622BBFE05E92582C88D
:020A6B00F22275
:100A6D00C2D5EC30E709B2D5E4C39DFDE49CFCEEA4
:100A7D0030E715B2D5E4C39FFFE49EFE120BAFC362
:100A8D00E49DFDE49CFC8003120BAF30D507C3E45D
:060A9D009FFFE49EFE2213
:100AA300EB9FF5F0EA9E42F0E99D42F0EC6480C8CA
:060AB30064809845F0226A
:100AB900EB9FF5F0EA9E42F0E99D42F0E89C45F093
:010AC900220A
:100ACA00E709F608DFFA8046E709F208DFFA803E0E
:100ADA0088828C83E709F0A3DFFA8032E309F608FB
:100AEA00DFFA806EE309F208DFFA806688828C8377
:100AFA00E309F0A3DFFA805A89828A83E0A3F60821
:100B0A00DFFA804E89828A83E0A3F208DFFA804204
:100B1A0080D280FA80C680D4805580F280298010E5
:100B2A0080A680EA809A80A880DA80E280CA80293A
:100B3A0088848C8589828A83E493A30586F0A30539
:100B4A0086DFF5DEF3800B89828A83E493A3F608B5
:100B5A00DFF9ECFAA9F0EDFB2288848C8589828A78
:100B6A0083E0A30586F0A30586DFF6DEF480E38939
:100B7A00828A83E493A3F208DFF980D688F0ED2411
:100B8A0002B4040050CCF582EB2402B4040050C233
:100B9A0023234582F582EF4E60B8EF60010EE582AD
:050BAA0023900B1A73FB
:1014D700020F56E493A3F8E493A34003F68001F2C6
:1014E70008DFF48029E493A3F85407240CC8C33316
:1014F700C4540F4420C8834004F456800146F6DFE5
:10150700E4800B01020408102040809015D5E47E8A
:10151700019360BCA3FF543F30E509541FFEE493D9
:10152700A360010ECF54C025E060A840B8E493A3A0
:10153700FAE493A3F8E493A3C8C582C8CAC583CACB
:10154700F0A3C8C582C8CAC583CADFE9DEE780BE83
:0116410000A8
:100BAF00BC000BBE0029EF8DF084FFADF022E4CC2A
:100BBF00F875F008EF2FFFEE33FEEC33FCEE9DECF3
:100BCF00984005FCEE9DFE0FD5F0E9E4CEFD22ED39
:100BDF00F8F5F0EE8420D21CFEADF075F008EF2F83
:100BEF00FFED33FD4007985006D5F0F222C398FD74
:050BFF000FD5F0EA2211
:00000001FF
